:0600000075A80002005388
:03001300020226C0
:0300230002155073
:1000500002005375816DE4F587F5C8759850758970
:1000600020758840758DF3758780D2BC75A894750E
:10007000C90275CAE075CBFA7820E4F608B86BFBC4
:100080007880F608B8EFFBF5677B22C2B5D2B5DB06
:10009000FA7E00120D79783476E078397610C2A3B2
:1000A0001203A178347670752A037E01120D79004F
:1000B00000001202FE1203A17E00120D79752A00C3
:1000C000120D79C281C2820217E2021170741012FD
:1000D000020B740212020B742012020B740412023F
:1000E0000BC29141920203CE16C2A60000D2A60214
:1000F0000126D2BA75A894303A02C23A7587813087
:100100003A04C23A01FC000000E5296020B4032152
:10011000C2814390207864E6940450CCE58054F882
:10012000B4F8C2B6003EE52904F52901F2D2818077
:10013000F5B40708120DBF0000002126B40808120C
:100140000DBF00000080DFB40908120DBF000000E1
:100150002126B40A35120DBF7851120E040000009A
:10016000D2822126E4F565F52601E8E522B43803BC
:10017000020176B43907D23CC2390216DEB4370226
:100180002176B4320221760215E6B40D1BC28253E9
:1001900090DF7864E6940450D02039CFE58054F89D
:1001A000B4F865B600BEE529B41108120E000000CF
:1001B000002126B41208120E000000002126B413FC
:1001C00005120E002126B41411752901120E00002B
:1001D00000007855120E0402083320A70200002107
:1001E0002630B20EE5385401700843380112052755
:1001F00021F55338FE1203A4E4F5A875A8842087DE
:100200000201FC75670001FC0203CE7B08C2B53316
:100210009291D2B5DBF7220000007B08C2B5A2B4F0
:1002200033D2B5DBF722C0E0C0D0C0F0C001C002BD
:10023000C003C2A60000D2A6743812020B12021A22
:10024000FAF55912021AFBF55AEA335004C3138027
:1002500007EBF4FBF55AEAF4FAF559D003D002D0D3
:1002600001D0F0D0D0D0E0327930746812020B1295
:10027000021AF70912021AF70912021AF709B9331A
:10028000047478416C000000FA54E04BFBEA541F00
:10029000FA32746012020B741412020B74F212021E
:1002A0000B744412020B747012020B74AD12020B29
:1002B00074E412020B74BF12020B0200F2785B515D
:1002C000D8785D795E7B0351D1E651D318DBF841D4
:1002D000FEE6C4540FF70922C8F9C87C0377000969
:1002E000DCFB7B10C333CA33CAC8F9C87C03FDE703
:1002F00037D4F709DCF9ED4003DBE9C300227A04C7
:10030000785F2040277933E67112F71908DAF88010
:100310005600048322FC0CDA9E2EB6F61CFEBE04A8
:100320008322FC60DAF266B6BEE0FEF67930E67152
:100330001FF70908DAF87837E654FD307F054408DE
:10034000F6614654F7F6204109783576600876FC68
:100350006159783576000876DAE5364401F536E5F8
:100360003954FEF53961A17837E654F7307F0644F9
:1003700002F602037854FDF620870DE56790031519
:1003800093F5357536FC615F2041097836760C1897
:1003900076FC619B783676001876DAE5394401F50B
:1003A0003912100DC2A07A0A78307B08E61392A1A8
:1003B00000D2A200000000C2A2DBF2081ABA0508AF
:1003C000D2A0D2A3C2A361AABA00DFD2A3227F0423
:1003D000120569E58054F8FEB4F808120D292109C8
:1003E0000212ABEE548060F8EE547823C37D007F98
:1003F000043340010DDFFABD0117EE5408605BEED7
:1004000054207059204215D24253379F71A40204E0
:10041000217522327EDA1204E602054CC2424337CD
:1004200040E564B40005F52602054C782606B603BF
:1004300073E4F6207812D278C244E5384440F538A7
:1004400071A475640802054CC278D244753A05124D
:100450000D64E53854BFF538814202052FEE541083
:10046000600D204005D24002054CC24002054CD22E
:1004700047204605E52BB4001490004812066D0095
:10048000000078A0120E04120F430204A7C24775A1
:1004900022327EDA1204E60204A7C24778A0120DC7
:1004A0005820460302054CE564B40005F5650205D5
:1004B0004C786506B603EDE4F6204621D246852B3E
:1004C00066E52AB4001EE52BB4000F752B01120D52
:1004D00029120EF2756408020BD202054CC2468541
:1004E000662B81CE81CB120D29204016783376F20F
:1004F00018764218764218EEF671A11205691205B7
:1005000027227830769E08760A08760A0881F77FD7
:100510000012113BC290C24522E5C84404F5C8222E
:10052000E5C854FBF5C822B119120572B12022C2E8
:1005300043C247E52A701C04F52A752B01120D7978
:10054000120D2978A0120D58E4FA51BDB127756437
:10055000082126B4010804F52A752B01A13DB40237
:10056000CE752A00752B02A13D7E647DE5DDFEDEA1
:0B057000FA227EC87DFFDDFEDEFA22CD
:100580007A0A80027A04E4F608DAFC227A05B18657
:1005900018880489057B20A9057A04E733F719DA5E
:1005A000FAA905E792E0F7A8047A05E636D4F6182A
:1005B000DAF9DBE3E8240AF8A9047A05E7540FF630
:1005C00018E7C4540FF61819DAF222B18418880417
:1005D00089059005F57B20C3A9057A0AE7540F9297
:1005E000E493F7A2E709DAF4A8047A04E613F6180C
:1005F000DAFADBE3220080018102820383048400B3
:10060000000000000005850686078708880989C361
:10061000EA9508700FEB95097008EC950A7003EDE8
:10062000950BC2D222E5836010E493FA740193FB28
:10063000740293FC740393FD22A882E6FA08E6FB99
:1006400008E6FC08E6FD22E5836014E493F50874EF
:100650000193F509740293F50A740393F50B22A82C
:1006600082860808860908860A08860B22E58360C8
:1006700014C082C083E0FAA3E0FBA3E0FCA3E0FD8A
:10068000D083D08222A882E6FA08E6FB08E6FC08BE
:10069000E6FD22E5836010E0F508A3E0F509A3E09C
:1006A000F50AA3E0F50B22A88286080886090886C9
:1006B0000A08860B22E4F8F50CF50DF50EF50FEDA2
:1006C0004C4B4A600BE5084509450A450B7037223B
:1006D000020769EAC3950840337013EB9509402C73
:1006E000700CEC950A40257005ED950B401EE50B4E
:1006F000250BF50BE50A350AF50AE5093509F50973
:10070000E5083508F50808E50830E7C7E508C39AA5
:10071000401A7015E5099B4013700EE50A9C400CC9
:100720007007E50B9D40056003C38012C3ED950B78
:10073000FDEC950AFCEB9509FBEA9508FAD3E50F69
:1007400033F50FE50E33F50EE50D33F50DE50C33FE
:10075000F50CE508C313F508E50913F509E50A13D7
:10076000F50AE50B13F50BD8A38D0B8C0A8B098AC0
:1007700008AD0FAC0EAB0DAA0C22ED850BF0A4F565
:100780000F85F00EED850AF0A4250EF50EE5F03488
:1007900000F50DED8509F0A4250DF50DE5F034000B
:1007A000F50CED8508F0A4250CF50CEC850BF0A4F8
:1007B000250EF50EE5F0350DF50DE50C3400F50CC4
:1007C000EC850AF0A4250DF50DE5F0350CF50CECE3
:1007D0008509F0A4250CF50CEB850BF0A4250DF58F
:1007E0000DE5F0350CF50CEB850AF0A4250CF50CA5
:1007F000EA850BF0A4250CFAAB0DAC0EAD0F22ED83
:10080000C3950BFDEC950AFCEB9509FBEA9508FAFC
:1008100022C3ED26FD18EC36FC18EB36FB18EA3641
:02082000FA22BA
:10083000020BC1D281C24590005512066D00000026
:100840009000511206930000001207FF000000788C
:1008500040120E0400000090005112066D900EEA46
:10086000120647120E3750C890005512066D900EB2
:10087000EA120647120E3750B7207877788C7990B5
:10088000120EC57888798C120EC578847988120E7C
:10089000C578807984120EC590004012066D78806C
:1008A000120E040000007887120811788B120811CC
:1008B000788F120811789312081120785B20441465
:1008C000783A06207813B6051ED244900ECE120652
:1008D0004702093320780701CBB60A0BD244900EA9
:1008E000D2120647020933853A0BE4F50AF509F5F9
:1008F00008213378E479E8120EC578E079E4120E25
:10090000C5789879E0120EC578947998120EC5785A
:10091000907994120EC5017C7897120811789B1279
:10092000081178E312081178E712081178EB120821
:100930001101BD120E51000000783C120E04E52A90
:100940006008308042C241020989020A2A90003CB4
:1009500012066D78BC12129B000000120E46901217
:1009600063120647120E51000000900ACD1206478E
:10097000120E46901263120647120E51783C120E68
:10098000040209D9020C6CD241B401F8E52B60BD18
:1009900090003C12066D78B412129B000000120EFB
:1009A00046901263120647120E5100000078BC12E6
:1009B000129B000000120E46000000901263120607
:1009C00047120E51000000900ACD120647120E4643
:1009D000901263120647120E517848120E049000CE
:1009E000A01206931207FF000000783C120E0400CC
:1009F0000000900EDE120647120E375018900EE6D9
:100A0000120647120E375007E52B6003020BA702B0
:100A10000B47020C10E52B60F9900EEA1206471204
:100A20000E3740EB1211210201E120805AD241E53C
:100A30002B603490003C12066D78B012129B0000BF
:100A400000120E46901263120647120E510000006B
:100A500078B412129B000000120E46901263120628
:100A600047120E51020AF790003C12066D78B01240
:100A7000129B000000120E46901263120647120EDF
:100A800051000000020AF7C241E52B604490003C8F
:100A900012066D900EBD120647120E4678B4121261
:100AA0009B000000120E46901263120647120E5170
:100AB00000000078B812129B000000120E4690123F
:100AC00063120647120E51000000020AF7000005EB
:100AD000DC90003C12066D900EBD120647120E46C9
:100AE00078B812129B000000120E46901263120694
:100AF00047120E510000007848120E049000A01218
:100B000006930000001207FF783C120E040000005C
:100B1000E52BB4020E900ECE120647120E51783C11
:100B2000120E04000000900EDE120647120E37501F
:100B30004E900EEE120647120E37503B900EE61204
:100B40000647120E374059204209120E25EDAA041D
:100B50001202BD303B0C3045161217C51215C302E8
:100B600001E1303CFAC23C1217D0752200615C20D2
:100B70003CE71216EB615CE52BB402C0020BFE20D1
:100B8000410BE52BB40203020BFE020C10E52BB463
:100B900001F8900EEA120647120E3740AA020BFE29
:100BA000E52B60A3B401032046A0E52B14B4FF019C
:100BB000E4F52B7E00120D79120D29120EF2020BB4
:100BC000D290004012066D900ED6120647120E37D4
:100BD0005023120BD80201E1C02A752A037E0112AC
:100BE0000D791205690000007E00120D79D02A7E71
:100BF00000120D7922E52A700DE52BB402081211BE
:100C00002171D80201E1304107E52BB4010261FEF8
:100C1000792A782B06B70006B60307168122B6029A
:100C200001167E00120D79120D29120EF261D2907A
:100C3000003C12066D9000BC120693000000120EDC
:100C400046901263120647120E51000000900C6885
:100C5000120647120E46901263120647120E5100FA
:100C6000000081B9000003750000052FE52B60BF6F
:100C700090003C12066D78B412129B000000120E18
:100C800046901263120647120E5100000078BC1203
:100C9000129B000000120E46901263120647120EBD
:100CA00051000000900C68120647120E4690126325
:100CB000120647120E510000007848120E049000F0
:100CC000A01206931207FF000000900EDE120647E6
:100CD000120E375041900EE6120647120E3750049E
:100CE000E52B7030204209120E25EDAA041202BD38
:100CF000303B0C3045161217C51215C30201E13006
:100D00003CFAC23C1217D075220081F9203CE71250
:100D100016EB81F961A7E52B600D900EEA120647EC
:100D2000120E3740BF61FE81107880E4F608B89C4F
:100D3000FAF53AF550C24478E0120D5878E4120DF5
:100D40005878E8120D58227830E4F608B83405E6F1
:100D500054F0F608B839F222C006E47E04F608DE44
:100D6000FCD006227894B1587898B15878E0B15800
:100D700078E4B15878E8B15822900DB3C3E52A94CD
:100D8000035019E52A75F003A42582F582E5F035B4
:100D900083F583E52B935390C7429022E52AB40351
:100DA0000BEE6004439004225390FB225390F743D0
:100DB000902022080010181000181000020020795E
:100DC00054120E85000000AD0BAC0AAB09AA0878DE
:100DD000471208110000007844120E040000007849
:100DE0005006B6041A7600900EC1120647000000A5
:100DF000120E51000000E4F544F545F546F5472292
:100E00007958A1C1EAF608EBF608ECF608EDF622EF
:100E1000EDF42401FDECF43400FCEBF43400FBEAC7
:100E2000F43400FA22EA335005D110D27F22C27F77
:100E300022307F02D11022D12512060FC0D0D1312D
:100E4000D0D000000022D12512077A000000D13155
:100E500022D1251206B5000000D13122E50BF42481
:100E600001F50BE50AF43400F50AE509F43400F560
:100E700009E508F43400F50822335002D11022337A
:100E80005002D15C22E55920E714855A0BA75A1964
:100E900085590AA75919E4F509F719F50822C3E598
:100EA0005AF42401F50BF719E559547FF43400F591
:100EB0000AF71974FFF509F719F508F72200000081
:100EC00003000000047F04E6F70908DFFA220000AF
:100ED00000050000000A0000520800004E2000003B
:100EE0004E1F00000064000003E8000055F0000001
:100EF0002AF8E52AB4002D9000A412066DE52BB463
:100F0000000578A0D10422B4010D900ED21206473C
:100F1000D151000000E102900EE2120647D15100CB
:100F20000000E102E52AB4010D9000A812066DE56B
:100F30002BB400D6E1029000AC12066DE52BB40094
:100F4000C9E102E52A700578A4D10422B40105782C
:100F5000A8D1042278ACD10422D297D296F1FCC257
:100F600097F1FCC296F1FC22C297D296F1FCD2977F
:100F700022D2972097FDD296F1FCC29622C379081F
:100F8000339297D296F1FCC296D9F5227908D2977E
:100F9000E4C296F1FCD296A29733D9F5F600000090
:100FA00022F15974A0F17DF171EEF17DF171F159E9
:100FB00074A1F17DF171F18C00000008DF02E1D035
:100FC000C296C297F1FCD296F1FCC296D297E1B6D6
:100FD000C296C297D296F1FCD29700000022F15936
:100FE00074A0F17DF171EEF17DF171E6F17DF171A9
:100FF000F168000000080E121145DFE20000000059
:1010000022E537549FF53702101B0210982040FA52
:101010002042EEE53754DB4440F537E52A604EB414
:1010200001277837E6547F4401F60808E64404F6C1
:10103000E53354FEF5337834E52BB40007E654F07D
:101040004402F622E654F0F622B402147837E6544D
:10105000E64404F6E53954FBF539E53354FEF5333F
:101060007834E52BB4000302108002108AE537546F
:101070007AF5377839E64404F67834E52BB400077E
:10108000E654F04408F622B40107E654F04404F6AE
:1010900022E654F04402F622204235E53754BA44A1
:1010A00020F5377834E654F0F6E52A6049B4012893
:1010B0007839E654FBF67837E654FA4480F678330C
:1010C000E64401F6E52BB400067832E64401F62248
:1010D000E537549FF53701A3B4020EE53354FEF50E
:1010E000337837E6547A4410F67834E52BB40003AD
:1010F0000211090211137837E654EF4480F678396B
:10110000E654FBF6E52BB400077830E64401F622FE
:10111000B401077831E64401F6227832E64401F65C
:1011200022120D2920450A7F7C12113BD290D24514
:10113000227F0012113BC290C245227A047830EF20
:10114000F608DAFC2279547AECDAFED9FA7B04DB71
:10115000FE22784C7F047E10120FDE0000007848DB
:091160007F047E10120FA10000B3
:101170007E007F0478B0120FA178B012128F901207
:101180006312064712060F407A9012671206471242
:10119000060F506F7E047F0478B4120FA178B4124A
:1011A000128F90126B12064712060F406E90126F4C
:1011B00012064712060F50637E087F0478B8120F9C
:1011C000A178B812128F90126B12064712060F40C8
:1011D0006290128B12064712060F50577E0C7F0446
:1011E00078BC120FA178BC12128F90126B120647B6
:1011F00012060F405690126F12064712060F504B00
:101200000200CD7522357EB61204E61205699012F1
:101210006F12062578B0120E0421947522357EB621
:101220001204E612056990126312062578B4120EB4
:101230000421B87522357EB61204E61205699012B3
:101240006312062578B8120E0421DC7522357EB6AD
:101250001204E612056990126312062578BC120E7C
:10126000044100000003E800000640000002BC004A
:10127000000514000001E4000003E8000002EE0095
:101280000001F400989680004C4B4000000708E6EF
:10129000FA08E6FB08E6FC08E6FD22E6F50808E6A3
:1012A000F50908E6F50A08E6F50B22C2407867B6AC
:1012B000005D90126312062578B0120E049012633E
:1012C00012062578B4120E0490126312062578B81F
:1012D000120E0490126312062578BC120E04786771
:1012E00006852A66752A00120BD82041087522341B
:1012F0007E2E1204E6E56790154193F5357536FCB0
:10130000E53954FEF5391203A175640C020109B6E2
:10131000016020410A7522347E2E1204E641F5E573
:1013200080541070D090128312062590003C120653
:1013300093E508335003120E5C1206B500000090CE
:10134000126312064712060F401A901267120647E0
:1013500012060F500F78C0120E0478670641F57818
:10136000671641F57E9E611AE58054087087615FBB
:101370006115B6024D2041F8E580541070EA9012D4
:101380008312062590003C120693E50833500312A1
:101390000E5C1206B500000090126B120647120692
:1013A0000F40C190128B12064712060F50B678C834
:1013B000120E0478670641F541F5E580540870F88F
:1013C000615FB603283041A8E580541070EC9000AE
:1013D0003C12066DEA335003120E10789C120E0474
:1013E00078670641F5E580540870CD615FB6046A00
:1013F000304165E580541070EC789C518F901263F9
:1014000012064712077A90003C120693E508335003
:1014100003120E5C1206B500000090126B12064714
:1014200012060F401E90126F12064712060F50133D
:101430001203A178C4120E04752A01120BD8786722
:101440000641F56164E580540870F6752A00120BB8
:10145000D8615F616402150E6115B605F83041F878
:10146000E580541070DF90128712062590003C1220
:101470000693E508335003120E5C1206B500009087
:10148000126B12064712060F40C990126F120647E0
:1014900012060F50BE78670678CC120E0478C07F13
:1014A000047E00120FDE78487F047E00120FA178C0
:1014B000C07EB012152000000078C47F047E0412A4
:1014C0000FDE78487F047E04120FA178C47EB41228
:1014D000152000000078C87F047E08120FDE007817
:1014E000487F047E08120FA178C87EB8121520002C
:1014F000000078CC7F047E0C120FDE78487F047EDB
:101500000C120FA178CC7EBC12152000000078339D
:10151000760018767A18767E1876B61203A141F511
:10152000518F7848519B12060F60097522357EB69F
:101530001204E622A806120E0422E53954FEF539FB
:0B15400022FC0CDA9E2EB6F61CFEBE4C
:10155000309903C29932C000C001C006C007C0E084
:10156000C0D030982A203936E599FF78F0F678D047
:10157000E6B4060B7522397EBE1204E60215A612E9
:1015800015BB06EFF7F599640A7002D239C298D2FA
:101590003AD0D0D0E0D007D006D001D000327522AA
:1015A000387EFE1204E678D0760078EF760078F088
:1015B000E6A18578D07600E545A18578D0E679D199
:1015C00029F92253A8EF12056978D7E6F5993099E1
:1015D000FDC29908640A70F343A88022564550530F
:1015E0004B424E46470A7F009015DCEF93FE78EFA2
:1015F000B1BDE76E60270FBF0AEE78D77645087653
:101600005208762008760A7522377E1C1204E602FC
:1016100016E078D0760078EF76000216DEEFB400A0
:1016200009752A00752B020216C2B40109752A0138
:10163000752B010216C2B40209752A02752B01022C
:1016400016C2B40305D23E0216D9B40426E52BB463
:101650000016D24790004812066D00000078A012D4
:101660000E04120F430216D97522327EDA1204E6F6
:101670000216E0B40505D23B0216D9B40605C23BFA
:101680000216D9B40710D278C244E5384440F53880
:101690001203A10216D9B40813C278D244753A05D0
:1016A000120D64E53854BFF5380216D9B409083074
:1016B0003E2CC23E0217747522377E1C1204E602CD
:1016C00016E0120D79120D2978A0120D58C243C2EE
:1016D00047E4FA1202BD12052778EF06A1E6C239E7
:1016E00078D0760078EF760002019C78D7307F04BE
:1016F000762DC1F6762B08795FE72430F60908E5E8
:101700002AB401237B02E72430F60908DBF8E52B35
:10171000700B762E08E72430F608760A22E724308C
:10172000F608762E08E11A6020E52B700F762E0859
:101730007B03E72430F60809DBF8E11AE72430F6EA
:101740000809762E087B02E132E52B60E0B4010245
:10175000E13C7B02E72430F60809DBF8762E080925
:10176000E72430F608E11A20390122B1BBE7B40AB8
:1017700002C2392278D7E52A600BB401047645E12C
:10178000877650E187765608E52B4430F608764B8D
:10179000082047047630E19A763108764C082041DB
:1017A000047631E1A7763008764608207804763052
:1017B000E1B4763108760AB1C378D079D67600776D
:1017C00000C239C1DE78D7764F08764C08760A22F7
:1017D00078D7764508767208E522F608760A22025E
:1017E00000CA2085FA75A8007599553099FD78ECE6
:1017F0007614309826E599B45513C299C2987D04A1
:101800007830760208DDFB1203A10217E87E1C7512
:1018100022371204E61205690217FA78ECB60003C3
:10182000021827160217F212183AC2997E1C752266
:0F183000371204E61205690217E87DE5DDFE2296
:00000001FF
