:020000040800F2
:10000000C0230020CD0100088918000881180008CD
:10001000851800085D030008CB2C000800000000D4
:100020000000000000000000000000008D18000823
:1000300061030008000000008B1800088F180008FA
:10004000E7010008E7010008E7010008E7010008F0
:10005000E7010008E7010008E7010008E7010008E0
:10006000E7010008E7010008E7010008E7010008D0
:10007000E7010008E7010008E7010008E7010008C0
:10008000E7010008E7010008E7010008E7010008B0
:100090003B2C0008E7010008E7010008E701000821
:1000A000E7010008E7010008E7010008E701000890
:1000B000E7010008E7010008E7010008E701000880
:1000C000E7010008E7010008E7010008E701000870
:1000D000E7010008E7010008E7010008E701000860
:1000E000E7010008E7010008E701000800F002F856
:1000F00000F05CF80AA090E8000C82448344AAF166
:100100000107DA4501D100F051F8AFF2090EBAE863
:100110000F0013F0010F18BFFB1A43F0010318473B
:10012000943C0000B43C00000A444FF0000C10F86E
:10013000013B13F0070408BF10F8014B1D1108BF65
:1001400010F8015B641E05D010F8016B641E01F805
:10015000016BF9D113F0080F1EBF10F8014BAD1C55
:100160000C1B09D16D1E58BF01F801CBFAD505E073
:1001700014F8016B01F8016B6D1EF9D59142D6D3CD
:10018000704700000023002400250026103A28BFF5
:1001900078C1FBD8520728BF30C148BF0B607047F9
:1001A0001FB500F08FF81FBD10B510BD00F09CF812
:1001B0001146FFF7F5FF03F0DBFD00F0BAF803B4DA
:1001C000FFF7F2FF03BC00F0C3F8000009488047C6
:1001D00009480047FEE7FEE7FEE7FEE7FEE7FEE729
:1001E000FEE7FEE7FEE7FEE704480549054A064B41
:1001F0007047000099180008ED000008C0140020A6
:10020000C0230020C01B0020C01B002010B5203AD6
:10021000C0F00B80B1E81850203AA0E81850B1E8BF
:100220001850A0E81850BFF4F5AF5FEA027C24BF75
:10023000B1E81850A0E8185044BF18C918C0BDE86C
:1002400010405FEA827C24BF51F8043B40F8043B35
:1002500008BF7047D20728BF31F8023B48BF11F8EA
:10026000012B28BF20F8023B48BF00F8012B704744
:100270004FF0000200B5134694469646203922BF3F
:10028000A0E80C50A0E80C50B1F12001BFF4F7AF8A
:10029000090728BFA0E80C5048BF0CC05DF804EB6C
:1002A000890028BF40F8042B08BF704748BF20F8DA
:1002B000022B11F0804F18BF00F8012B70477047D8
:1002C0007047704770B5064C7C44064D7D4403E092
:1002D000206820448047241DAC42F9D170BD000045
:1002E000083B0000083B0000754600F02BF8AE46C6
:1002F00005006946534620F00700854618B020B532
:10030000FFF772FFBDE820404FF000064FF00007F6
:100310004FF000084FF0000B21F00701AC46ACE8AD
:10032000C009ACE8C009ACE8C009ACE8C0098D461A
:10033000704710B50446AFF300802046BDE810407A
:10034000FFF73DBF004870475C1400207047000075
:1003500001491820ABBEFEE72600020000BFFEE701
:100360007047000070B5044600F0A4F90646254623
:10037000681C10B104480078054400BF00F09AF9E9
:10038000801BA842FAD370BD080000202DE9F84771
:1003900003460024002000258446002700226DE14A
:1003A0004FF0010808FA02F4D1F8008008EA0400CE
:1003B000A0427DD1DFF8D0A2D1F80480A8EB0A09D1
:1003C000D0453AD014DCB8F1030F50D009DCB8F1B5
:1003D000000F31D0B8F1010F1CD0B8F1020F49D194
:1003E00020E0B8F1110F18D0B8F1120F42D11EE081
:1003F000B9F5881F25D006DCB9F5803F20D0B9F5C6
:10040000801F37D11AE0B9F5001F18D0B9F5041FC5
:1004100030D117E0D1F80CC02DE0D1F80C8008F1F4
:10042000040C28E0D1F80C8008F1080C23E0D1F886
:100430000C8008F10C0C1EE000BF00BF00BF00BF25
:1004400000BF00BFD1F80880B8F1000F02D14FF013
:10045000040C0BE0D1F80880B8F1010F03D14FF084
:10046000080C1C6102E04FF0080C5C6103E04FF0E7
:10047000000C00E000BF00BFFF2801D8984601E053
:1004800003F104084646FF2802D84FEA820803E039
:10049000A2F108084FEA88084746D6F800804FF0D6
:1004A0000F0909FA07F928EA09080CFA07F900E028
:1004B00087E048EA0908C6F80080D1F8048008F00F
:1004C0008058B8F1805F7CD100BFDFF8C081D8F8D8
:1004D000188048F00108DFF8B491C9F81880C846C0
:1004E000D8F8188008F00108CDF8008000BF4FEA66
:1004F000B9384FEA920958F829504FEA82784FEA02
:1005000018794FF00F0808FA09F825EA0805DFF80E
:100510008081434502D14FF0000816E0DFF8748176
:10052000434502D14FF001080FE0DFF86C814345ED
:1005300002D14FF0020808E0DFF86081434502D1A4
:100540004FF0030801E04FF004084FEA82794FEAC8
:10055000197908FA09F848EA0505DFF844814FEAF5
:10056000920948F82950D1F8048008F48038B8F589
:10057000803F0AD1DFF82C81D8F8008048EA0008D3
:10058000DFF82091C9F8008009E0DFF81881D8F879
:10059000008028EA0008DFF80C91C9F80080D1F843
:1005A000048008F40038B8F5003F10D1DFF8F4807B
:1005B00008F10408D8F8008048EA0008DFF8E49061
:1005C00000E05AE009F10409C9F800800DE0DFF805
:1005D000D48008F10408D8F8008028EA0008DFF881
:1005E000C49009F10409C9F80080D1F8048008F426
:1005F0008018B8F5801F0ED1DFF8A88008F1080830
:10060000D8F8008048EA0008DFF8989009F1080956
:10061000C9F800800DE0DFF88C8008F10808D8F8F0
:10062000008028EA0008DFF87C9009F10809C9F881
:100630000080D1F8048008F40018B8F5001F0ED12E
:10064000DFF8608008F10C08D8F8008048EA00085C
:10065000DFF8509009F10C09C9F800800DE0DFF8CF
:10066000448008F10C08D8F8008028EA0008DFF878
:10067000349009F10C09C9F80080521C102AFFF4CB
:100680008FAEBDE8F8870000000011100010024096
:1006900000080140000C014000100140001401401E
:1006A00008000140000401400AB1016101E00B04AF
:1006B0000361704701480068704700000000002097
:1006C00070B50446002600250CB9012070BD94F8D1
:1006D0003D0028B9002084F83C00204600F0AEF828
:1006E000242084F83D002068006820F00100216883
:1006F000086000F033FE05464C496068884206D821
:100700004B48854201D2012007E0002005E049481E
:10071000854201D2012000E00020012800D1D5E768
:100720004548B5FBF0F6206846604049606888425D
:1007300001D8701C07E04FF4967070434FF47A7143
:10074000B0FBF1F0401C21680862384960688842BB
:1007500014D8681E61684900B0FBF1F0401CC0F37A
:100760000B00042801D204203DE0681E61684900A6
:10077000B0FBF1F0401CC0F30B0034E0A06838B9C6
:10078000681E616801EB4101B0FBF1F0401C0AE01A
:10079000681E616801EBC10202EB0111B0FBF1F0D0
:1007A000401C40F48040C0F30B0008B901201AE05F
:1007B000A06848B9681E616801EB4101B0FBF1F027
:1007C000401CC0F30B000CE0681E616801EBC10225
:1007D00002EB0111B0FBF1F0401CC0F30B0040F440
:1007E000804040F400402168C861D4E90701084313
:1007F00021680860D4E90310084321688860D4E9BF
:10080000050108432168C8602068006840F00100C5
:100810002168086000202064202084F83D0000202A
:10082000206384F83E0000BF50E70000A08601006E
:1008300080841E0000093D0040420F0010B586B0C4
:1008400004460F492068884218D1C0200290122027
:100850000390012004900320059002A90948FFF7A6
:1008600095FD00BF0848C06940F400100649C86102
:100870000846C06900F40010019000BF06B010BD2A
:1008800000540040000C0140001002400348006882
:1008900003490978084401490860704700000020B6
:1008A0000800002010B50848006840F01000064914
:1008B0000860032000F080F8002000F007F800F046
:1008C0002BF8002010BD00000020024070B5044647
:1008D0000E4800784FF47A71B1FBF0F00C490968CA
:1008E000B1FBF0F5284600F0B1FF08B1012070BD62
:1008F000102C07D200222146501E00F01EF8054899
:10090000046001E00120F2E70020F0E70800002089
:100910000C00002004000020704701460846002813
:1009200009DB00F01F0301229A4043099B0003F1F9
:10093000E023C3F8002100BF70472DE9F05F804637
:100940000D461646002702F0A1FF074639462A4603
:10095000334601F00700C0F1070ABAF1040F02D9CB
:100960004FF0040A01E0C0F1070AD14600F1040A81
:10097000BAF1070F02D24FF0000A01E0A0F1030A1A
:10098000D4464FF0010A0AFA09FAAAF1010A0AEA62
:10099000020A0AFA0CFA4FF0010B0BFA0CFBABF14E
:1009A000010B0BEA030B4AEA0B042146404602F016
:1009B00011FFBDE8F09F000000BF00F00702064BEA
:1009C00019684FF6FF031940044B0B4343EA022119
:1009D000014B196000BF70470CED00E00000FA0504
:1009E00070B505460C46002104F08000802806D131
:1009F00004F07F0605F1280000EB461103E005F541
:100A00000A7000EB44111AB9002088728B8004E050
:100A100001208872CB80180C0881002070BD7047BF
:100A200070B504460D4604F1280101EB45114A69F1
:100A30002946D4F85C0401F066F870BD70B5044630
:100A40000D4604F50A7101EB45114A692946D4F8AF
:100A50005C0401F0C5F870BD70B504460D46002673
:100A600005F08000802806D105F07F0104F1280000
:100A700000EB411605E005F07F0104F50A7000EB7C
:100A8000411605F07F00307005F08000C0097070DD
:100A900000BF94F82804012801D1022070BD012074
:100AA00084F8280400BF3146206801F058FD00BFDB
:100AB000002084F8280400BF00BFEFE770B50446AB
:100AC0000D46002605F08000802806D105F07F0144
:100AD00004F1280000EB411603E004F50A7000EB76
:100AE00045160020B07005F07F003070C5F3C010CF
:100AF000707000BF94F82804012801D1022070BD55
:100B0000012084F8280400BF3146206801F054FE1B
:100B100000BF002084F8280400BF00BFEFE70246B2
:100B200001F00F0302F50A7000EB4310808B80B2D6
:100B300070472DE9F04704460D46174698464FF09A
:100B40000009002605F08000802806D105F07F010D
:100B500004F1280000EB411605E005F07F0104F5E3
:100B60000A7000EB411605F07F00307005F0800040
:100B7000C0097070376186F8038000BF94F82804BC
:100B8000012802D10220BDE8F087012084F8280462
:100B900000BF3146206801F009FB00BF002084F847
:100BA000280400BF4846EEE72DE9F04105460E4611
:100BB00017469846002406F07F0105F50A7000EB01
:100BC00041146761C4F818800020E061607006F08D
:100BD0007F00207006F07F0020B92146286801F0D0
:100BE00088FE03E02146286801F083FE0020BDE86E
:100BF000F08170B504460D46002605F0800080287F
:100C000006D105F07F0104F1280000EB411603E056
:100C100004F50A7000EB45160120B07005F07F0066
:100C20003070C5F3C010707000BF94F8280401281C
:100C300001D1022070BD012084F8280400BF314694
:100C4000206801F013FE05F07F0020B904F22C416A
:100C5000206801F0AEFD00BF002084F8280400BF2A
:100C600000BFE7E72DE9F04105460E4617469846D6
:100C7000002406F07F0105F1280000EB41146761B4
:100C8000C4F818800020E0610120607006F07F0049
:100C9000207006F07F0020B92146286801F029FE67
:100CA00003E02146286801F024FE0020BDE8F08121
:100CB00010B50446206801F0C4FF00F40040B0F510
:100CC000004F02D1204602F086FA206801F0B9FFF9
:100CD00000F48060B0F5806F0ED12068B0F8440059
:100CE00020F480602168A1F84400204600F042F919
:100CF0000021204600F059F9206801F0A2FF00F41D
:100D00008040B0F5804F07D12068B0F8440020F44F
:100D100080402168A1F84400206801F092FF00F4AF
:100D20000050B0F5005F07D12068B0F8440020F40F
:100D300000502168A1F84400206801F082FF00F40F
:100D40008050B0F5805F1AD12068B0F8400020F0E4
:100D500004002168A1F840002068B0F8400020F0AD
:100D600008002168A1F84000204600F010F9206832
:100D7000B0F8440020F480502168A1F844002068B5
:100D800001F05FFF00F40060B0F5006F20D1206833
:100D9000B0F8400040F008002168A1F84000206849
:100DA000B0F8440020F400602168A1F844002068F5
:100DB000B0F8400040F004002168A1F8400020682D
:100DC00001F03FFFC0F3003010B9204600F030F9C9
:100DD000206801F036FF00F40070B0F5007F0AD102
:100DE0002068B0F8440020F400702168A1F84400A5
:100DF000204600F0D3F8206801F023FF00F4807053
:100E0000B0F5807F07D12068B0F8440020F48070EE
:100E10002168A1F8440010BD30B585B00446002516
:100E200014B9012005B030BD94F8290428B9002078
:100E300084F82804204600F07DF8032084F8290473
:100E4000206801F0ABFC142204F110016846FFF7A2
:100E5000DDF994E80F0001F07EFB0021206801F02D
:100E600009FF002525E0012104F1280000EB4510D1
:100E7000417004F1280000EB4510057004F12800D2
:100E800000EB45108581002104F1280000EB45109E
:100E9000C17004F1280000EB4510016104F1280045
:100EA00000EB4510416104F1280000EB4510816121
:100EB0006D1C0F2DD7D3002524E0002104F50A7006
:100EC00000EB4510417004F50A7000EB4510057009
:100ED00004F1280000EB4510858104F50A7000EB51
:100EE0004510C17004F50A7000EB4510016104F56E
:100EF0000A7000EB4510416104F50A7000EB4510E3
:100F000081616D1C0F2DD8D3142204F110016846A5
:100F1000FFF77CF994E80F0001F031FC002084F821
:100F20002400012084F82904206801F025FC002019
:100F300078E7000038B504460C492068884214D18F
:100F400000BF0B48C06940F400000949C861084669
:100F5000C06900F40000009000BF00221146142078
:100F6000FFF7EBFC1420FFF7D8FC38BD005C004015
:100F70000010024070B5044601252946D4F85C04EF
:100F800000F03AFFD4F85C0400F0FCFE70BD10B530
:100F90000446D4F85C0400F017FF10BD10B50446F9
:100FA000D4F85C0400F017FF10BD70B504460D4680
:100FB00000BF94F82804012801D1022070BD01204F
:100FC00084F8280400BF84F824502946206801F0E2
:100FD00054FE00BF002084F8280400BF00BFEDE7E6
:100FE00010B5044604F22C41D4F85C0400F01BFF59
:100FF00010BD10B5044600BF94F82804012801D1A3
:10100000022010BD012084F8280400BF01212046E1
:10101000FFF705FD206801F0ACFB206801F002FE3F
:1010200000BF002084F8280400BF00BFE9E70000EB
:1010300010B50446D4F85C0400F04EFFA06928B156
:101040000348006840F006000149086010BD000038
:1010500010ED00E0F8B5044600260025207800F0E9
:10106000010000286AD000274248C06900F0805083
:1010700068B900BF3F48C06940F080503D49C86131
:101080000846C06900F08050009000BF01273A4830
:10109000006800F48070B0B93748006840F4807090
:1010A00035490860FFF706FB064606E0FFF702FB3E
:1010B000801B642801D90320F8BD2F48006800F484
:1010C00080700028F2D02B48006A00F440752DB3E0
:1010D000A08800F44070A84220D02648006A20F47E
:1010E00040750120254908600020086021480562FC
:1010F00005F0010090B1FFF7DDFA064608E0FFF7C2
:10110000D9FA801B41F28831884201D90320D3E704
:101110001848006A00F002000028F0D01548006A64
:1011200020F440706168084312490862012F04D11D
:101130000846C06920F08050C86100BF207800F0E8
:101140000200022807D10B48406820F44040A16803
:10115000084308494860207800F01000102807D1A3
:101160000448406820F48000E16808430149486071
:101170000020A1E7001002400070004040044242FD
:1011800070B504460D4600266D48006800F0070063
:10119000A8420ED26A48006820F007002843684938
:1011A00008600846006800F00700A84201D001204E
:1011B00070BD207800F0020002281DD1207800F0D8
:1011C0000400042805D15F48406840F4E0605D49B0
:1011D0004860207800F00800082805D15948406888
:1011E00040F46050574948605648406820F0F0008D
:1011F000A168084353494860207800F001000028A6
:101200005DD06068012806D14E48006800F40030C7
:1012100090B90120CCE76068022806D149480068EF
:1012200000F0007040B90120C2E74648006800F0B5
:10123000020008B90120BBE74248406820F00300E3
:10124000616808433F494860FFF734FA0646606822
:10125000012810D108E0FFF72DFA801B41F28831F8
:10126000884201D90320A3E73648406800F00C000B
:101270000428F0D123E06068022810D108E0FFF7CD
:1012800019FA801B41F28831884201D903208FE787
:101290002C48406800F00C000828F0D10FE008E06E
:1012A000FFF708FA801B41F28831884201D90320F8
:1012B0007EE72448406800F00C000028F0D1204868
:1012C000006800F00700A8420ED91D48006820F011
:1012D000070028431A4908600846006800F0070024
:1012E000A84201D0012063E7207800F00400042820
:1012F00007D11448406820F4E060E16808431149D0
:101300004860207800F00800082808D10D4840689F
:1013100020F46050216940EAC1000A49486000F0A9
:101320002DF808494968C1F30311074A515CC840C8
:10133000064908600020FFF7C9FA002038E70000DE
:1013400000200240001002407C3D00080C000020FC
:1013500001480068704700000C00002000B5FFF74E
:10136000F7FF04494968C1F30221034A515CC840B0
:1013700000BD0000001002408C3D0008F0B585B0B3
:101380000FF26C0C9CE8E01001A8A0E8E0101CA58E
:101390002D68009500210022002300240020194D13
:1013A000696801F00C05EDB1042D02D0082D1AD1A9
:1013B00001E0154819E001ADC1F38346AC5D01F4CD
:1013C000803555B10F4D6D68C5F340451DF80520BA
:1013D0000D4D6543B5FBF2F302E00C4D04FB05F344
:1013E000184602E000BF084800BF00BF05B0F0BDCE
:1013F00002030405060708090A0B0C0D0E0F101056
:10140000010200000010024000127A0000093D00B5
:10141000F8B504460025207800F00100002878D0B7
:10142000F748406800F00C0004280CD0F4484068ED
:1014300000F00C00082811D1F148406800F4803019
:10144000B0F5803F0AD1EE48006800F40030002873
:101450005FD0606800285CD10120F8BD00BF6068E3
:10146000B0F5803F06D1E648006840F48030E4499A
:10147000086028E0606858B9E148006820F48030CE
:10148000DF4908600846006820F4802008601AE000
:101490006068B0F5A02F0BD1D948006840F48020D7
:1014A000D74908600846006840F4803008600AE0C8
:1014B000D348006820F48030D149086008460068AD
:1014C00020F48020086000BF606888B1FFF7F2F860
:1014D000054606E0FFF7EEF8401B642801D903201B
:1014E000BBE7C748006800F400300028F2D010E0E5
:1014F000FFF7E0F8054606E0FFF7DCF8401B64283C
:1015000001D90320A9E7BE48006800F40030002894
:10151000F2D1207800F00200022857D1B848406884
:1015200000F00C0050B1B648406800F00C000828EC
:1015300018D1B348406800F4803098B9B0480068CA
:1015400000F0020020B12069012801D0012084E7C9
:10155000AB48006820F0F800616940EAC100A84982
:10156000086033E02069E8B10120A6490860FFF770
:10157000A1F8054606E0FFF79DF8401B022801D9B7
:1015800003206AE79E48006800F002000028F2D0BD
:101590009B48006820F0F800616940EAC100984962
:1015A000086013E0002097490860FFF783F80546BC
:1015B00006E0FFF77FF8401B022801D903204CE723
:1015C0008F48006800F002000028F2D1207800F077
:1015D000080008282DD1A069B8B101208A49086007
:1015E000FFF768F8054606E0FFF764F8401B02289D
:1015F00001D9032031E78248406A00F00200002848
:10160000F2D0012002F0D2F913E000207E490860F8
:10161000FFF750F8054606E0FFF74CF8401B02289C
:1016200001D9032019E77648406A00F0020000283B
:10163000F2D1207800F00400042872D1002670480E
:10164000C06900F0805068B900BF6D48C06940F0C3
:1016500080506B49C8610846C06900F08050009016
:1016600000BF01266948006800F48070B0B967487F
:10167000006840F4807065490860FFF71BF8054674
:1016800006E0FFF717F8401B642801D90320E4E6C1
:101690005E48006800F480700028F2D000BFE06867
:1016A000012806D15648006A40F0010054490862FA
:1016B00027E0E06858B95248006A20F0010050491C
:1016C00008620846006A20F00400086219E0E06839
:1016D00005280BD14A48006A40F0040048490862D6
:1016E0000846006A40F0010008620AE04448006AC7
:1016F00020F00100424908620846006A20F0040018
:10170000086200BFE068A0B1FEF7D4FF054609E01B
:10171000FEF7D0FF401B41F28831884202D90320F6
:101720009BE622E03648006A00F002000028EFD075
:1017300012E0FEF7BFFF054608E0FEF7BBFF401BC7
:1017400041F28831884201D9032086E62C48006A9C
:1017500000F002000028F0D1012E05D12848C06910
:1017600020F080502649C86100BFE069C8B3244812
:10177000406800F00C0008285FD0E069022847D1DB
:10178000002020490866FEF795FF054606E0FEF7B3
:1017900091FF401B022801D903205EE6184800682B
:1017A00000F000700028F2D1206AB0F5803F07D128
:1017B0001348406820F40030A1680843104948608D
:1017C000D4E9080108430E49496821F4741108431B
:1017D0000B49486001200B490866FEF76BFF054680
:1017E00007E02CE0FEF766FF401B022801D903202A
:1017F00033E60348006800F000700028F2D01EE0D5
:10180000001002400000424280044242007000404A
:1018100000200C490866FEF74DFF054606E0FEF77E
:1018200049FF401B022801D9032016E6064800683C
:1018300000F000700028F2D101E001200DE6002048
:101840000BE60000000042420010024070B5044662
:101850002546681EB0F1807F01D301200FE0681E8D
:101860004FF0E02148610F214FF0FF3001F0B2FF4F
:1018700000204FF0E021886107200861002070BD42
:1018800000BFFEE700BFFEE770477047704710B526
:10189000FEF7FCFF10BD00001148006840F0010099
:1018A0000F490860084640680E4908400C494860E6
:1018B000084600680C490840094908600846006865
:1018C00020F4802008600846406820F4FE0048604C
:1018D0004FF41F008860C803044908607047000087
:1018E000001002400000FFF8FFFFF6FE08ED00E0E8
:1018F00070B50446D4F81852D4F8180298B1207C78
:1019000040B94FF4007301212046D5F8042200F0BD
:1019100021FA06E0402301212046D5F8042200F0F8
:1019200019FA002070BD0220FCE70246022011B126
:10193000C2F81C12002070470246D2F81832C3F8D1
:1019400004120020704710B50346D3F81842C4F8BB
:101950000812C4F81022002010BD70B504460D46D0
:10196000D4F814022946426820469047002070BDF2
:1019700070B506460C4615462B46224600213046D9
:1019800000F0E8F9002070BD70B506460C4615461B
:101990002B4622460021304600F0A8FA002070BDF8
:1019A00070B504460D468021204600F073FA0021F0
:1019B000204600F06FFA70BD70B504460E4615461D
:1019C0000320C4F8F4014FF484700551001D055143
:1019D0002B4632460021204600F0BCF9002070BDA5
:1019E00010B504460520C4F8F40100231A46194630
:1019F000204600F0AFF9002010BD70B504460E4639
:101A000015460220C4F8F401A561E5612B46324673
:101A10000021204600F06AFA002070BD10B504468F
:101A20000420C4F8F40100231A461946204600F0A9
:101A30005DFA002010BD2DE9F04104460D46174621
:101A40000026FCB1204601F055F9022101EB4000CF
:101A500038803A783046711CCEB22A540322304680
:101A6000711CCEB22A540AE014F8012B3046711CC6
:101A7000CEB22A5400223046711CCEB22A542078AD
:101A80000028F1D1BDE8F08170B504460D46164638
:101A90000CB9022070BDD4F8140210B10020C4F8B3
:101AA00014020DB1C4F81052012084F8FC01267014
:101AB000204600F0E1F80020ECE72DE9F041044673
:101AC0000D46002600272946D4F82002FEF7F6FF2F
:101AD0000646304601F092FE07463846BDE8F081E2
:101AE0002DE9F04104460D46002600272946D4F88A
:101AF0002002FEF7B1FF0646304601F07FFE0746A2
:101B00003846BDE8F0812DE9F04104460E461746FF
:101B1000002E54D104F11405D4F8F401022843D165
:101B2000D5E90201884210D9D5E90201401AA8601E
:101B3000288982B239462046FFF726FF00231A463D
:101B40001946204600F006F92EE0E9686868B0FB07
:101B5000F1F201FB1200B8B9E9686868884213D352
:101B60006868D4F8F81188420ED200221146204647
:101B7000FFF70AFF0020C4F8F80100231A461946AF
:101B8000204600F0E7F80FE0D4F81402C06840B136
:101B900094F8FC01032804D1D4F81402C16820464B
:101BA00088472046FFF71CFF94F80002012814D153
:101BB000204600F0CFF9002084F800020DE0D4F8B0
:101BC0001402406948B194F8FC01032805D1D4F807
:101BD000140231464269204690470020BDE8F0815A
:101BE0002DE9F04105460E4617465EBB05F58274A9
:101BF000D5F8F401032833D1D4E90201884210D981
:101C0000D4E90201401AA060D4E90201884201D25D
:101C1000A06800E0E06882B239462846FFF7A8FED7
:101C20001EE0D5F81402006940B195F8FC010328C4
:101C300004D1D5F814020169284688472846FFF7E1
:101C4000EDFE0DE0D5F81402806948B195F8FC016D
:101C5000032805D1D5F814023146826928469047F9
:101C60000020BDE8F08170B504460D462946D4F841
:101C70002002FEF754FF70BD70B505461B4804688E
:101C8000C4F85C5405F508752C60194820600820DC
:101C900060600221A1600021A161E1612162204612
:101CA000FFF7BAF81823002211462868FEF798FEBD
:101CB0005823002280212868FEF792FEC0230022CC
:101CC00081212868FEF78CFE4FF4887300220121E1
:101CD0002868FEF785FE2868A5F508754FF480731F
:101CE00000228221FEF77CFE002070BD70000020E3
:101CF000005C004010B50246D2F8203201F08000AE
:101D0000802807D101F07F0403F1280000EB441084
:101D1000807810BD01F07F0403F50A7000EB4410D9
:101D20008078F6E72DE9F04704460F4615461E4633
:101D30004FF00008C1462B4632463946D4F82002FF
:101D4000FEF7F7FE8046404601F058FD81464846C2
:101D5000BDE8F0872DE9F04704460D4616461F46BC
:101D60004FF00008C1463B4632462946D4F82002CF
:101D7000FEF71AFF8046404601F040FD8146484686
:101D8000BDE8F08710B504464023002211462046E6
:101D9000FFF7C8FF40214FF4887001514023002213
:101DA00080212046FFF7BEFF40212162012084F8F8
:101DB000FC01D4F8180228B12179D4F81402426841
:101DC00020469047002010BD014691F8FD0181F8A2
:101DD000FC010020704710B5044694F8FC0103286C
:101DE00008D1D4F81402C06920B1D4F81402C16932
:101DF00020468847002010BD02461174002070471D
:101E00002DE9F04104460D46002600272946D4F866
:101E10002002FFF7CAF80646304601F0EFFC0746FD
:101E20003846BDE8F08170B504460D46294604F5F4
:101E3000027000F073F80120C4F8F40140F20E20A3
:101E4000005BC4F8F80194F8080200F01F0020B10C
:101E5000012808D0022812D10BE004F502712046B7
:101E600000F093F813E004F50271204600F071F9D8
:101E70000DE004F50271204600F0C0F807E094F888
:101E8000080200F08001204600F004F800BF00BF07
:101E9000002070BD2DE9F04104460D4600260027C4
:101EA0002946D4F82002FEF7A4FE0646304601F08B
:101EB000A5FC07463846BDE8F08170B5044600250C
:101EC0000026D4F82002FFF794F80546284601F0D2
:101ED00095FC0646304670BD014691F8FC0181F83C
:101EE000FD01042081F8FC01002070472DE9F04736
:101EF00004460D4616461F464FF00008C1463B46B5
:101F000032462946D4F82002FEF7ACFE8046404611
:101F100001F074FC81464846BDE8F0870A780270FB
:101F20004A7842708B78CA7803EB022242800B79A0
:101F30004A7903EB022282808B79CA7903EB022271
:101F4000C28070470246002011B1C2F8141200E0AE
:101F50000220704701460020704770B504460D46C8
:101F60000226D4F8140238B1D4F8140229460268C3
:101F70002046904700B90026304670BD10B5044693
:101F80002046FFF79AFF002010BD70B505460C46AD
:101F9000002660780A2829D2DFE800F01923281EDD
:101FA000280A0528140F2146284601F06EFB22E07E
:101FB0002146284601F0B9F81DE02146284600F0E8
:101FC000F5FF18E02146284600F0A6FF13E0214661
:101FD000284600F0C9FF0EE02146284601F0CFF860
:101FE00009E02146284601F07EF804E02146284613
:101FF000FFF7D6FC00BF00BF304670BD2DE9F041B1
:1020000005460E464FF000083479307800F0600045
:10201000202808D1D5F81402314682682846904716
:102020000020BDE8F0817078002855D001282AD022
:1020300003287AD195F8FC01022802D003281BD18D
:1020400007E02CB1802C03D021462846FFF722FF61
:1020500017E0708830B92CB1802C03D02146284677
:10206000FFF718FFD5F814023146826828469047DA
:102070002846FFF7D3FC04E031462846FFF790FCE2
:1020800000BF00BF62E095F8FC01022802D00328DF
:102090001BD107E02CB1802C03D021462846FFF746
:1020A000F9FE17E0708878B904F07F0048B1214646
:1020B0002846FFF702FDD5F814023146826828460B
:1020C00090472846FFF7AAFC04E031462846FFF770
:1020D00067FC00BF00BF39E095F8FC01022802D080
:1020E00003282BD107E004F07F0018B121462846D1
:1020F000FFF7D0FE27E004F08000802806D104F02E
:102100007F0105F1140000EB011005E004F07F01F0
:1021100005F5827000EB0110074621462846FFF7BF
:10212000E9FD18B10120386002E00EE000203860BF
:10213000022239462846FFF760FC04E03146284673
:10214000FFF72EFC00BF00BF00E000BF00BF40460D
:1021500067E770B504460D46002694F8FC01032895
:1021600014D1287901280CDCD4F81402294682689D
:1021700020469047E88840B93EB92046FFF74EFC1C
:1021800003E029462046FFF70BFC04E029462046E1
:10219000FFF706FC00BF00BF002070BD70470000C5
:1021A00001460148704700009401002010B5024626
:1021B000C87830B101282CD0022810D0032836D19D
:1021C00019E00878400032F8100048F68F131840E4
:1021D00040F400700B785B0022F8130028E00878C8
:1021E000400032F8100048F68F1318400B785B005F
:1021F00022F813001CE00878400032F8100048F67E
:102200008F13184040F4C0600B785B0022F8130075
:102210000EE00878400032F8100048F68F1318409E
:1022200040F480600B785B0022F8130000E000BFF0
:1022300000BF0878400032F8100048F68F7318404D
:1022400048F2800318430B7818435B0022F8130010
:10225000887A00287DD1487898B388884010440057
:10226000B2F85030087803EBC00002F5806343F801
:1022700010400878400032F8100000F0400068B1CB
:102280000878400032F8100048F68F73184048F282
:10229000C00318430B785B0022F813000B785B0037
:1022A00032F8133048F6BF7403EA040080F02000CF
:1022B00040F4004343F080030C78640022F81430AB
:1022C00047E1FFE7888840104400B2F850300878B2
:1022D00003EBC000001D02F5806343F81040B2F824
:1022E0005040087804EBC000801D1C4604EB4003FE
:1022F0000C693E2C10D90C69C4F34F100C7C04F00F
:102300001F040CB9441EA0B24FF6FF7404EA8024E7
:1023100044F400441C600DE00C69C4F34F000C7CD5
:1023200004F001040CB1441CA0B24FF6FF7404EA9F
:1023300080241C600878400032F8100000F48040CF
:1023400078B10878400032F8100048F68F731840D2
:1023500000E01BE04CF2800318430B785B0022F88E
:1023600013000B785B0032F813304BF68F7403EADE
:10237000040080F4805080F4005040F4004343F0A7
:1023800080030C78640022F81430E2E00878400002
:1023900032F8100040F4807048F68F73184048F20D
:1023A000800318430B785B0022F81300C8884010A4
:1023B0004400B2F85030087803EBC00002F58063A7
:1023C00043F81040088940104400B2F850300878B3
:1023D00003EBC000001D02F5806343F8104048780D
:1023E000F0BB0878400032F8100000F4804068B17B
:1023F0000878400032F8100048F68F7318404CF20D
:10240000800318430B785B0022F813000878400023
:1024100032F8100000F0400068B10878400032F84F
:10242000100048F68F73184048F2C00318430B7829
:102430005B0022F813000878400032F8100048F6DC
:102440008F73184048F2C00318430B785B0022F8E2
:1024500013000B785B0032F813304BF68F7400E0FA
:102460001EE003EA040080F4805080F4005040F441
:10247000004343F080030C78640022F814300B789A
:102480005B0032F8133048F6BF7403EA040040F4EE
:10249000004343F080030C78640022F8143058E0C5
:1024A0000878400032F8100000F4804068B10878E5
:1024B000400032F8100048F68F7318404CF2800349
:1024C00018430B785B0022F813000878400032F8BC
:1024D000100000F0400068B10878400032F81000A9
:1024E00048F68F73184048F2C00318430B785B001E
:1024F00022F813000878400032F8100048F68F7375
:1025000018404CF2800318430B785B0022F813004C
:102510000B785B0032F8133048F6BF7403EA04000E
:1025200040F4004343F080030C78640022F8143038
:102530000B785B0032F813304BF68F7403EA04001B
:1025400040F4004343F080030C78640022F8143018
:1025500000BF002010BD10B50446002010BD10B50E
:102560000246887A00284DD1487828B30878400080
:1025700032F8100000F0400068B10878400032F8EE
:10258000100048F68F73184048F2C00318430B78C8
:102590005B0022F813000B785B0032F8133048F62A
:1025A000BF7403EA040040F4004343F080030C7856
:1025B000640022F81430DAE00878400032F81000A5
:1025C00000F4804068B10878400032F8100048F606
:1025D0008F7318404CF2800318430B785B0022F88D
:1025E00013000B785B0032F813304BF68F7403EA5C
:1025F000040040F4004343F080030C78640022F8A8
:102600001430B4E04878002858D10878400032F8F7
:10261000100000F4804068B10878400032F81000E3
:1026200048F68F7318404CF2800318430B785B0018
:1026300022F813000878400032F8100000F0400043
:1026400068B10878400032F8100048F68F731840DF
:1026500048F2C00318430B785B0022F81300087897
:10266000400032F8100048F68F73184048F2C0035B
:1026700018430B785B0022F813000B785B0032F8EC
:1026800013304BF68F7403EA040040F4004343F028
:1026900080030C78640022F814300B785B0032F869
:1026A000133048F6BF7403EA040040F4004343F0DB
:1026B00080030C78640022F8143058E00878400059
:1026C00032F8100000F4804068B10878400032F819
:1026D000100048F68F7318404CF2800318430B78B3
:1026E0005B0022F813000878400032F8100000F078
:1026F000400068B10878400032F8100048F68F7347
:10270000184048F2C00318430B785B0022F813000E
:102710000878400032F8100048F68F7318404CF2E9
:10272000800318430B785B0022F813000B785B00E2
:1027300032F8133048F6BF7403EA040040F4004353
:1027400043F080030C78640022F814300B785B00AF
:1027500032F813304BF68F7403EA040040F4004360
:1027600043F080030C78640022F8143000BF00208E
:1027700010BD01460020704701460020704710B58B
:102780000446012024F8400F00202080A0802082F1
:10279000403C204600F046FA002010BD01460022D1
:1027A0004FF43D42B1F840009043A1F840000020B2
:1027B000704702460020704710B50246487848B37B
:1027C0000878400032F8100000F0400068B1087846
:1027D000400032F8100048F68F73184048F2C003EA
:1027E00018430B785B0022F813000B785B0032F87B
:1027F000133048F6BF7403EA040080F0100080F044
:10280000200040F4004343F080030C78640022F879
:10281000143029E00878400032F8100000F48040BD
:1028200068B10878400032F8100048F68F731840FD
:102830004CF2800318430B785B0022F813000B78EE
:102840005B0032F813304BF68F7403EA040080F417
:10285000805080F4005040F4004343F080030C7833
:10286000640022F8143000BF002010BD10B50246ED
:102870000878A0B90B785B0032F813304BF6BF74C0
:1028800003EA040080F4805080F0100040F400431C
:1028900043F080030C78640022F8143027E0487875
:1028A00090B10B785B0032F8133048F6BF7403EA3E
:1028B000040080F0100040F4004343F080030C78E3
:1028C000640022F8143012E00B785B0032F8133009
:1028D0004BF68F7403EA040080F4805040F4004308
:1028E00043F080030C78640022F8143000BF00200D
:1028F00010BDF0B506460C460027A5696078012892
:102900007CD12169A069884204D92569A069401B4E
:10291000A06102E0A5690020A061A07A80B9ABB2F5
:10292000A2883046616900F0AFF9B6F850102078FF
:1029300001EBC000801C06F5806141F81050A1E059
:102940002078400036F8100000F04000C0B36078F6
:1029500038BBB6F85020207802EBC000801D06F589
:10296000806202EB40013E2D0ED9C5F34F1005F0F9
:102970001F020AB9421E90B24FF6FF7202EA80228D
:1029800042F400420A600BE0C5F34F0005F001027B
:102990000AB1421C90B24FF6FF7202EA80220A602E
:1029A0000CE06078012809D1B6F85010207801EBCE
:1029B000C000801C06F5806141F81050278939E07D
:1029C000FFE7607840BBB6F85020207802EBC000EB
:1029D000801C06F5806202EB40013E2D0FD9C5F345
:1029E0004F1005F01F020AB9421E90B24FF6FF7257
:1029F00002EA802242F400420A600CE057E0C5F38C
:102A00004F0005F001020AB1421C90B24FF6FF726E
:102A100002EA80220A600CE06078012809D1B6F849
:102A20005010207801EBC000801C06F5806141F851
:102A30001050E788ABB23A463046616900F024F99D
:102A4000607870B92078400036F8100048F68F7131
:102A5000084048F2C00108432178490026F81100D7
:102A600010E0607801280DD12078400036F8100081
:102A700048F68F7108404CF28001084321784900E4
:102A800026F811002178490036F8111048F6BF7277
:102A900001EA020080F0100080F0200040F40041C4
:102AA00041F080012278520026F81210B8E0216926
:102AB000A069884204D92569A069401BA06102E091
:102AC000A5690020A061A07A38BBB6F85020207814
:102AD00002EBC000801D06F5806202EB40013E2D36
:102AE0000ED9C5F34F1005F01F020AB9421E90B26D
:102AF0004FF6FF7202EA802242F400420A600BE0C5
:102B0000C5F34F0005F001020AB1421C90B24FF626
:102B1000FF7202EA80220A606DE0607838BBB6F886
:102B20005020207802EBC000801C06F5806202EB8A
:102B300040013E2D0ED9C5F34F1005F01F020AB912
:102B4000421E90B24FF6FF7202EA802242F4004227
:102B50000A600BE0C5F34F0005F001020AB1421C08
:102B600090B24FF6FF7202EA80220A600CE06078B1
:102B7000012809D1B6F85010207801EBC000801C64
:102B800006F5806141F81050607838BBB6F85020E7
:102B9000207802EBC000801D06F5806202EB400148
:102BA0003E2D0ED9C5F34F1005F01F020AB9421E83
:102BB00090B24FF6FF7202EA802242F400420A60AD
:102BC0000BE0C5F34F0005F001020AB1421C90B2C0
:102BD0004FF6FF7202EA80220A600CE0607801285A
:102BE00009D1B6F85010207801EBC000801C06F522
:102BF000806141F810502178490036F811104BF6E9
:102C00008F7201EA020080F4805080F4005040F49A
:102C1000004141F080012278520026F8121000BFD6
:102C20000020F0BD014600224FF43F42B1F84000C1
:102C30001043A1F840000020704710B500F07CFF61
:102C400010BD01460020B1F844007047F0B55F1C8C
:102C50007E100024002500EB420707F5806534460E
:102C600005E035F804CB21F801CB491C641E002C8B
:102C7000F7D1F0BD024600207047024611B980200E
:102C8000A2F84C00002070472DE9F041044603F102
:102C900001084FEA68070025AC460026002004EB37
:102CA000420808F580603D460BE091F800C0491CE1
:102CB00091F800804CEA082620F8026B801C491C21
:102CC0006D1E002DF1D1BDE8F08100BFFEE70000D0
:102CD00010B5002204490548FEF735FE04490348B3
:102CE000FEF72AFE002010BD20100020B4050020B1
:102CF000380C00200146002002E0421CD0B2491CE2
:102D00000A78002AF9D1704730B50B46002100BF80
:102D100016E00A24B4EB107F05D9302404EB1074BC
:102D200003F8114005E0412404EB10740A3C03F859
:102D30001140000100254C00641C1D554C1CE1B2E3
:102D40009142E6DB30BD00207047000070B50A48B4
:102D50000468001D0568001D0668344454B108224B
:102D600006492046FFF7D0FF0422044910312846C7
:102D7000FFF7CAFF70BD0000E8F7FF1F4600002004
:102D80002DE9F04104460F460026207C70B94FF42F
:102D90000073022281212046FEF7C4FF4FF4007326
:102DA000022201212046FEF7BDFF0BE04023022254
:102DB00081212046FEF7B6FF402302220121204652
:102DC000FEF7B0FF0823032282212046FEF7AAFF68
:102DD0004FF40770FFF7E4F9C4F81802D4F81802AA
:102DE00008B901261CE0D4F81852D4F81C1208685F
:102DF00080470020C5F81402C5F81802207C40B9AD
:102E00004FF4007301212046D5F80422FEF7A2FFFB
:102E100006E0402301212046D5F80422FEF79AFF60
:102E20003046BDE8F0810346042B15D007DC7BB1AA
:102E3000012B0ED0022B0DD0032B12D10BE0202B37
:102E40000BD0212B0AD0222B09D0232B09D107E04C
:102E500008E007E006E005E004E003E002E001E04E
:102E600000E000BF00BF00207047000070B50446BE
:102E70000D4621460348FEF75FFD0248FEF738FD88
:102E8000002070BDB405002070B505460C46D5F88D
:102E90001862207800F0600040B3202835D1E08827
:102EA000E0B1207800F0800060B1E2886078D5F869
:102EB0001C128B6831469847E28831462846FEF757
:102EC0009CFD12E0607886F80002A07986F8010285
:102ED000E28831462846FEF76FFD06E06078D5F8B7
:102EE0001C1200228B68214698470FE060780A2860
:102EF00002D00B2807D105E0012206492846FEF73B
:102F00007CFD00E000BF00BF00BF00BF00BF00208D
:102F100070BD00008301002070B504460D46E888AE
:102F2000012804D029462046FEF73AFD1BE094F81C
:102F3000FC01022802D003280FD108E00020A06085
:102F4000012204F108012046FEF757FD0AE00122A4
:102F5000211D2046FEF751FD04E029462046FEF7DC
:102F60001FFD00BF00BF70BD70B504460D4694F84C
:102F7000FC01022802D0032811D100E000BF01208B
:102F8000E060D4F8040218B1E06840F00200E060AC
:102F9000022204F10C012046FEF72FFD04E0294631
:102FA0002046FEF7FDFC00BF00BF70BD70B50446B3
:102FB0000D46A8783449087008460078012804DDD9
:102FC00029462046FEF7ECFC5BE094F8FC01022861
:102FD00002D003284FD11CE02B480078A8B12A4822
:102FE00000786060032084F8FC01274801782046BF
:102FF000FEF7B3FF022804D129462046FEF7D0FC95
:1030000070BD2046FEF70AFD02E02046FEF706FDF1
:1030100036E01D48007870B9022084F8FC011A4897
:1030200000786060184801782046FEF796FC20463C
:10303000FEF7F4FC1EE0144909786068884216D057
:1030400021792046FEF789FC0F48007860600E4821
:1030500001782046FEF781FF022804D12946204648
:10306000FEF79EFCCCE72046FEF7D8FC02E02046A7
:10307000FEF7D4FC04E029462046FEF791FC00BF91
:1030800000BF00BFBCE700008401002002460B46E1
:10309000D2F81812D2F8180218B10020C1F81402A0
:1030A00070470220FCE770B504460E4600258121DA
:1030B0002046FEF715FD01212046FEF711FD822175
:1030C0002046FEF70DFDD4F8180250B1D4F81C12BA
:1030D00048688047D4F81802FFF760F80020C4F869
:1030E0001802284670BD70B504460D4694F8FC01E0
:1030F000022802D0032811D100E000BF688801280F
:103100000BD10020C4F80402D4F8140229468268C6
:10311000204690472046FEF781FC04E029462046E1
:10312000FEF73EFC00BF00BF70BD70B504460D4603
:10313000A888F8B9E888E8B9A87800F07F0694F87C
:10314000FC01032804D129462046FEF729FC15E09E
:1031500084F8FE6131462046FEF752FE2046FEF717
:103160005DFC1EB1022084F8FC0107E0012084F818
:10317000FC0103E029462046FEF712FC70BD70B545
:1031800004460D46688801280AD1C4F80402D4F820
:10319000140229468268204690472046FEF73EFCEE
:1031A00070BD70B504460E46D4F81852314620461C
:1031B000FEF759FDC5F80C02D4F8180248B1D5F84D
:1031C0000402D4F81C12CA6805F503719047002068
:1031D00070BD0220FCE72DE9FC41054600240027D4
:1031E00000260020019000900CE2BDF8040000F0E1
:1031F0000F06002E7DD1BDF8040000F0100088BB42
:103200002868008848F60F7108402968088005F191
:1032100028042868B0F85010207801EBC000801C0A
:10322000296801F5806131F81000C0F30900E06100
:10323000E16960690844606100212846FDF7F0FB00
:1032400095F824000028CFD0A0690028CCD195F8AB
:10325000240040F080002968A1F84C00002085F887
:103260002400CFE1FFE705F50A7428680088009084
:10327000BDF8000000F4006018B32868B0F85010E2
:10328000207801EBC000801D296801F5806131F8CC
:103290001000C0F30900E061A18B8BB2A28805F297
:1032A0002C412868FFF7D2FC28680088C0F30E0084
:1032B00048F68F710840296808802846FDF790FE7F
:1032C000A0E1BDF8000000F4004000288CD0286880
:1032D0000088C0F30E0048F68F7108402968088006
:1032E0002868B0F85010207801EBC000801D2968D4
:1032F00000E055E001F5806131F81000C0F30900ED
:10330000E061E06960B1B4F81CC01FFA8CF3A288D8
:1033100061692868FFF79AFCE169606908446061A7
:1033200000212846FDF78AFB2A6802F5806228689A
:10333000B0F85000801D02EB400122693E2A10D9EE
:103340002269C2F34F10227C02F01F020AB9421E0A
:1033500090B24FF6FF7202EA802242F400420A6005
:103360000DE02269C2F34F00227C02F001020AB193
:10337000421C90B24FF6FF7202EA80220A6029686E
:1033800009884BF68F7201EA020080F4805080F4C5
:10339000005040F4004141F080012A68118031E181
:1033A0007100286830F811000090BDF8000000F4AA
:1033B000004000287CD07100286830F81100C0F36C
:1033C0000E0048F68F7108407200296821F812003B
:1033D00005F50A7000EB4614A07AA8B92868B0F881
:1033E0005010207801EBC000801D296801F5806134
:1033F00031F81000C0F30907EFB3A28861693B46BA
:103400002868FFF723FC44E021784900286830F859
:10341000110000F48040A8B12868B0F8501020785E
:1034200001EBC000801C296801F5806131F81000B3
:10343000C0F30907DFB1E28861693B462868FFF7FE
:1034400005FC14E02868B0F85010207801EBC000AB
:10345000801D296801F5806131F81000C0F309076B
:103460002FB1228961693B462868FFF7EFFB21787D
:103470004900286800E00CE030F8110048F68F7130
:10348000084048F2C001084322785200296821F818
:103490001200E0693844E061606938446061A06905
:1034A00010B12069B84204D921782846FDF7C6FA40
:1034B00005E021782846D4E90523FDF775FBBDF822
:1034C000000000F0800000287CD005F1280000EB0F
:1034D00046147100286830F8110048F60F71084052
:1034E0007200296821F81200A07AD0B92868B0F8D3
:1034F0005010207801EBC000801C296801F5806124
:1035000031F81000C0F30900E061E069E8B3B4F8F5
:103510001CC01FFA8CF3A28861692868FFF7B4FB0E
:103520004EE021784900286830F8110000F0400092
:10353000D0B12868B0F85010207801EBC000801C92
:10354000296801F5806131F81000C0F30900E061DD
:10355000E06928B3B4F81CC01FFA8CF3E2886169F3
:103560002868FFF791FB1BE02868B0F8501020781E
:1035700001EBC000801D296801F5806131F8100061
:10358000C0F30900E061E06900E019E040B1B4F87F
:103590001CC01FFA8CF3228961692868FFF774FB4D
:1035A00021784900286830F8110048F68F710840EA
:1035B0004CF28001084322785200296821F8120059
:1035C000286800E01EE0B0F85010207801EBC00041
:1035D000801C296801F5806131F81000C0F30900F2
:1035E000E061E169606908446061A06920B92178FF
:1035F0002846FDF715FA05E021782846D4E9052389
:10360000FDF730FB2868B0F84400019000F400405A
:1036100000287FF4EAADBDE8FC8100B593B0282115
:1036200009A8FCF725FE142104A8FCF721FE0020C0
:1036300000900190029003900120099000040A90EC
:1036400000200B9001200D9002201090C1031191D9
:10365000C104129109A8FDF7DBFE0F20049002209F
:103660000590002006904FF480600790002008909D
:10367000012104A8FDF784FD102000908004039030
:103680006846FDF7E7FC13B000BDF8B504460E46EA
:103690007088001208287FD2DFE800F07E040C203A
:1036A0007E7E5F6D207CD4F810120A6869469047D0
:1036B000054676E0207C40B9D4F81402816A684659
:1036C000884705460221697007E0D4F81402C16AF0
:1036D0006846884705460221697062E0B07806288E
:1036E00034D2DFE800F0030B131B232B207CD4F82B
:1036F00010124A686946904705462CE0207CD4F8B1
:1037000010128A6869469047054624E0207CD4F868
:103710001012CA686946904705461CE0207CD4F820
:1037200010120A6969469047054614E0207CD4F8D7
:1037300010124A696946904705460CE0207CD4F88F
:1037400010128A6969469047054604E031462046D2
:10375000FEF726F9F8BD00BF23E0207C30B9D4F88D
:103760001402416B6846884705461AE031462046F8
:10377000FEF716F9EEE7207C48B9D4F81402016B85
:10378000684688470546072169700AE004E031462B
:103790002046FEF705F9DDE731462046FEF700F941
:1037A000D8E700BFBDF8000088B1F08878B1F08894
:1037B000BDF80010884202DDBDF8000000E0F0888E
:1037C0000090BDF8002029462046FEF716F900BFFC
:1037D000C0E7000010B5002804DB0A07130E054AF5
:1037E000135406E00A07140E034A00F00F031B1FD0
:1037F000D45410BD00E400E018ED00E001460020C4
:1038000031B1012906D0022906D0032908D105E0EB
:10381000002007E0022005E0012003E0022001E093
:10382000022000BF00BF704770B50546D5F81842AA
:10383000D5F81C0278B194F80002FF280BD094F858
:10384000012294F80002D5F81C128B682146984793
:10385000FF2084F80002002070BD000001464320D4
:103860000880014870470000FC000020014643200A
:103870000880014870470000B8000020024612206E
:1038800008800148704700002C00002002480068B2
:10389000C0F30220704700000CED00E070B5054653
:1038A0000C462DB92246064906A0FEF7C4F804E0EE
:1038B0002246034903A0FEF7BEF8014870BD000090
:1038C000B403002043444320436F6E6669670000E1
:1038D0000246042008800148704700004000002094
:1038E00070B505460C461A202080FFF72FFA0148D4
:1038F00070BD00004400002070B505460C4622460D
:10390000024903A0FEF797F8004870BDB4030020F9
:1039100053544D3332205669727475616C20436F75
:103920006D506F727400000001464320088001480A
:10393000704700004001002070B505460C462DB9C7
:103940002246064906A0FEF776F804E0224603491F
:1039500003A0FEF770F8014870BD0000B40300201A
:1039600043444320496E74657266616365000000DC
:1039700070B505460C462246024903A0FEF75BF8E7
:10398000004870BDB403002053544D6963726F65E5
:103990006C656374726F6E696373000001460A2080
:1039A00008800148704700007400002008B50849ED
:1039B0000968C9084FF47A72B1FBF2F141430091F2
:1039C00000BF00BF00994A1E00920029F9D108BD2E
:1039D0000C00002010B5044600F01AF92168401AC6
:1039E00010BD10B5044600F013F92060002060609F
:1039F00010BD10B504462046FFF7F3FF204610BD6A
:103A00001FB52D4B0FCB8DE80F0069462B48FCF7F7
:103A1000BDFC4FF400400090012001906946284809
:103A2000FCF7B4FC4FF480500090012001906946EF
:103A30002348FCF7ABFC1020009000200190694661
:103A40001E48FCF7A3FC0122D1031D48FCF72CFE05
:103A500000F038F840200090012001906946174896
:103A6000FCF794FC002240211448FCF71DFE1020B6
:103A700000F034F8022000F031F8202000F02EF899
:103A8000042000F02BF8602000F028F8142000F04B
:103A900025F8F22000F022F8442000F01FF87020F2
:103AA00000F01CF8AD2000F019F8E42000F016F842
:103AB000BF2000F013F81FBD943D0008000C01402A
:103AC0000008014008B50020009002E00098401C6A
:103AD00000900098B0F57A7FF8DB08BD70B5044619
:103AE000002524E000224FF400411248FCF7DCFDE1
:103AF000FFF7E8FF04F0800038B1012211030D4800
:103B0000FCF7D2FDFFF7DEFF07E000224FF4805103
:103B10000848FCF7C9FDFFF7D5FF6006040E012237
:103B2000D1030448FCF7C0FDFFF7CCFF6D1C082D46
:103B3000D8DB70BD0008014010B50248FDF7B8F8A9
:103B400010BD0000D807002010B500220749084822
:103B5000FDF79AFF07490648FEF7F4F906490448BD
:103B6000FDF7E3FE0248FEF709FA10BD1000002041
:103B7000B4050020800000206000002008B5FCF79C
:103B800091FEFFF74AFD00BF2048806940F0010028
:103B90001E4988610846806900F00100009000BF5E
:103BA00000BF0846C06940F08050C8610846C0693F
:103BB00000F08050009000BF00BF0846806940F0D0
:103BC000200088610846806900F02000009000BF56
:103BD00000BF0846806940F004008861084680699B
:103BE00000F00400009000BF00BF0846806940F06C
:103BF000080088610846806900F00800009000BF56
:103C000000F092F8FFF7A0FF08BD0000001002408E
:103C100010B5FCF74FFD10BD10B504462046FCF76B
:103C2000A1FB10BD10B5FFF7A9FF00F017F800F0D9
:103C300033F8FFF7E5FE10BD10B500F007F8B0F55A
:103C4000FA7F01D300F060F810BD000010B5024803
:103C5000FFF7C0FE10BD00008C0100201FB50B4B0C
:103C60000FCB8DE80F0069460948FCF78FFB012256
:103C700011020748FCF718FD012251020448FCF725
:103C800013FD0020034908701FBD0000A43D00087B
:103C9000000C01408801002010B500224FF4807113
:103CA0000848FCF701FD3C20FFF7B6FF0122110296
:103CB0000448FCF7F9FC0120034908700348FFF7AA
:103CC00090FE10BD000C0140880100208C010020F6
:103CD00010B500224FF400710848FCF7E5FC3C20C9
:103CE000FFF79AFF012251020448FCF7DDFC002097
:103CF000034908700348FFF774FE10BD000C014033
:103D0000880100208C01002010B500F007F810B1E8
:103D1000FFF7DEFF01E0FFF7BFFF10BD01480078AD
:103D2000704700008801002010B50A480A49086061
:103D30000A484860002108488160C1604FF4804112
:103D40000161002141618161C1610162FCF7B8FC40
:103D500010BD00000054004008140020A08601009F
:103D600010B50248FFF745FE10BD00008C01002091
:103D7000FFF758FF01E0FFF75FFFFCE700000000DE
:103D8000000000000102030406070809000000000B
:103D90000102030408000000000000000100000010
:103DA000030000000003000001000000010000000B
:103DB00003000000D83D000800000020940100002E
:103DC00028010008A43E0008940100202C220000D5
:103DD000840100088DFFFFFF413210420116A24A04
:103DE000047D381B08D1041371391B08F9081AE146
:103DF000041A9D041A39101312011402020216400B
:103E0000830440571D0201020335071A0403090405
:103E10001A0313D12C1408472D1408272E1B086DE4
:103E20000413D80714200A0632022A40741A811C8F
:103E300013A7301B08891C411A296C1A8D104BA33B
:103E40003110811A6D181A5D041A29881A9D041CF4
:103E500009024383111DC0320904BD1A020B130568
:103E6000241610010524011009010424020205246E
:103E700006170107058203081C100904B9320A1D40
:103E8000070501027B2C07058107110937442A40E9
:103E9000072A8107112B0907440A2204440A16FF46
:043EA00044011000C9
:04000005080000ED02
:00000001FF
